:0400000068EF04F0B1
:1008000000014F12064C24200F000400010EF66E6A
:1008100020EE11F00A0E0900F5CFDEFFE82EFBD71F
:10082000000E936E000E1C6E000E1B6E110E1B242C
:10083000D96E000E1C20DA6EDF508A6E000E086E34
:10084000010E076E2EEC04F01B50090A1C10D8A4F0
:1008500002D01B681C681B4A1C2AE8D707C001F09D
:1008600008C002F0000E046E640E036E55EC04F036
:1008700001C00AF002C00BF0000E086E000E076EF9
:1008800009D0040E096E3E0EE82EFED7092EFCD7C5
:10089000074A082A0850800A096E0A50075C0B5064
:1008A000800A0958D8B01200ECD701500302F3CFE8
:1008B00005F0F4CF06F001500402F3500626025072
:1008C0000302F350062605C001F006C002F0120034
:0E08D000000EF86E080EF76E000106EF04F041
:020000040020DA
:08000000FFFFFFFFFFFFFFFF00
:020000040030CA
:0E0000000005191EFF0181FF0FC00FE00F4029
:00000001FF
