:0400000079EF3FF065
:107E7A008A968A988A9A8A8C12008A868A988A8A24
:107E8A008A9C12008A968A988A8A8A9C12008A8612
:107E9A008A988A9A8A8C12008A868A988A9A8A9CEE
:107EAA0012008A868A888A8A8A9C12008A968A8816
:107EBA008A8A8A9C12008A868A888A9A8A9C1200EE
:107ECA008A968A888A9A8A9C12008A82B7EC3FF03C
:107EDA008A9212008A80B7EC3FF08A9012008A9642
:107EEA008A988A9A8A9C12000A6A096A00018CEFA7
:107EFA003FF074EC3FF080B06FEC3FF08A84010EE3
:107F0A00026E2C0E016E9EEC3FF08A941200939042
:107F1A009392939493969398939A939C9280929225
:107F2A007EEC3FF06FEC3FF07EEC3FF06AEC3FF006
:107F3A00F7D7000E0A6E000E096E09D0040E036E02
:107F4A003E0EE82EFED7032EFCD7094A0A2A0A500B
:107F5A00800A036E0150095C0250800A0358D8B0A7
:107F6A001200ECD751EC3FF0000E026E640E016E67
:107F7A009EEC3FF065EC3FF0000E026E640E016E5F
:107F8A009EEC3FF060EC3FF0000E026E640E016E54
:107F9A009EEC3FF047EC3FF0000E026E640E016E5D
:107FAA009EEC3FF042EC3FF0000E026E640E016E52
:107FBA009EEC3FF05BEC3FF0000E026E640E016E29
:107FCA009EEC3FF056EC3FF0000E026E640E016E1E
:107FDA009EEC3FF03DEC3FF0000E026E640E016E27
:107FEA009EEC3FF04CEC3FF0000E026E640E016E08
:067FFA009EEC3FF01200B6
:020000040020DA
:08000000FFFFFFFFFFFFFFFF00
:020000040030CA
:0E00000000051F1FFF0385FF0FC00FE00F401C
:00000001FF
