:040000006BEF3FF073
:107E5E008A968A988A9A8A8C12008A868A988A8A40
:107E6E008A9C12008A968A988A8A8A9C12008A862E
:107E7E008A988A9A8A8C12008A868A988A9A8A9C0A
:107E8E0012008A868A888A8A8A9C12008A968A8832
:107E9E008A8A8A9C12008A868A888A9A8A9C12000A
:107EAE008A968A888A9A8A9C12008A80B7EC3FF05A
:107EBE008A9012008A82B7EC3FF08A9212008A965C
:107ECE008A988A9A8A9C12000A6A096A00018BEFC4
:107EDE003FF066EC3FF07DEC3FF08A84010E026EBF
:107EEE002C0E016E9EEC3FF08A94120080A005D0FD
:107EFE005CEC3FF066EC3FF006D080A204D061EC63
:107F0E003FF066EC3FF01200C16893909392939409
:107F1E0093969398939A939C9280928270EC3FF0F2
:107F2E005CEC3FF070EC3FF061EC3FF0F7D7000EE9
:107F3E000A6E000E096E09D0040E036E3E0EE82E78
:107F4E00FED7032EFCD7094A0A2A0A50800A036E6E
:107F5E000150095C0250800A0358D8B01200ECD7C9
:107F6E0043EC3FF0000E026E640E016E9EEC3FF08D
:107F7E0057EC3FF0000E026E640E016E9EEC3FF069
:107F8E0052EC3FF0000E026E640E016E9EEC3FF05E
:107F9E0039EC3FF0000E026E640E016E9EEC3FF067
:107FAE0034EC3FF0000E026E640E016E9EEC3FF05C
:107FBE004DEC3FF0000E026E640E016E9EEC3FF033
:107FCE0048EC3FF0000E026E640E016E9EEC3FF028
:107FDE002FEC3FF0000E026E640E016E9EEC3FF031
:107FEE003EEC3FF0000E026E640E016E9EEC3FF012
:027FFE0012006F
:020000040020DA
:08000000FFFFFFFFFFFFFFFF00
:020000040030CA
:0E00000000051F1FFF0385FF0FC00FE00F401C
:00000001FF
